:020000040800F2
:100000000028002041160008B5130008BB130008A3
:10001000C1130008C7130008CD130008000000003A
:10002000000000000000000000000000D3130008E2
:10003000DF13000800000000EB130008F7130008AE
:100040008916000889160008891600088916000814
:100050008916000889160008891600088916000804
:1000600089160008891600088916000889160008F4
:1000700089160008891600088916000889160008E4
:1000800089160008891600088916000889160008D4
:1000900089160008891600088916000889160008C4
:1000A00089160008891600088916000889160008B4
:1000B00005140008891600080000000089160008D1
:1000C00089160008000000000000000089160008E2
:1000D00000000000891600088916000800000000D2
:1000E000891600088916000889160008000000001B
:1000F0000000000000000000000000000000000000
:0C01000000000000000000005FF808F1A3
:10010C0010B5054C237833B9044B13B10448AFF345
:10011C0000800123237010BD40000020000000006F
:10012C00B82C000808B5034B1BB103490348AFF3C7
:10013C00008008BD0000000044000020B82C00081E
:10014C0080B582B000AF78607B68002B29D100228B
:10015C004FF40071D34801F094FD00224FF48061FC
:10016C00D04801F08EFD00224FF40061CD4801F023
:10017C0088FD00224FF48051CA4801F082FD002214
:10018C004FF40051C74801F07CFD00224FF4804130
:10019C00C44801F076FD01224FF40041C14801F042
:1001AC0070FD7B68012B29D101224FF40071BD48F1
:1001BC0001F067FD00224FF48061BA4801F061FD47
:1001CC0000224FF40061B74801F05BFD01224FF4AF
:1001DC008051B44801F055FD01224FF40051B14853
:1001EC0001F04FFD01224FF48041AE4801F049FD72
:1001FC0001224FF40041AB4801F043FD7B68022B18
:10020C0029D100224FF40071A64801F03AFD0022DA
:10021C004FF48061A34801F034FD01224FF40061DA
:10022C00A04801F02EFD00224FF480519D4801F0B2
:10023C0028FD00224FF400519A4801F022FD0122C2
:10024C004FF48041974801F01CFD00224FF400410F
:10025C00944801F016FD7B68032B29D100224FF442
:10026C000071904801F00DFD00224FF480618D4823
:10027C0001F007FD00224FF400618A4801F001FDF6
:10028C0000224FF48051874801F0FBFC01224FF40F
:10029C000051844801F0F5FC01224FF48041814863
:1002AC0001F0EFFC00224FF400417E4801F0E9FC24
:1002BC007B68042B29D101224FF40071794801F09D
:1002CC00E0FC00224FF48061764801F0DAFC002259
:1002DC004FF40061734801F0D4FC01224FF48051BB
:1002EC00704801F0CEFC01224FF400516D4801F032
:1002FC00C8FC00224FF480416A4801F0C2FC002285
:10030C004FF40041674801F0BCFC7B68052B29D1F8
:10031C0000224FF40071634801F0B3FC01224FF44A
:10032C008061604801F0ADFC00224FF400615D4833
:10033C0001F0A7FC00224FF480515A4801F0A1FCB7
:10034C0001224FF40051574801F09BFC00224FF45E
:10035C008041544801F095FC00224FF40041514873
:10036C0001F08FFC7B68062B29D100224FF4007121
:10037C004C4801F086FC01224FF48061494801F0A1
:10038C0080FC00224FF40061464801F07AFC002208
:10039C004FF48051434801F074FC00224FF400519B
:1003AC00404801F06EFC00224FF480413D4801F0C2
:1003BC0068FC00224FF400413A4801F062FC7B6873
:1003CC00072B29D100224FF40071364801F059FC5B
:1003DC0000224FF48061334801F053FC00224FF4AB
:1003EC000061304801F04DFC01224FF480512D4842
:1003FC0001F047FC01224FF400512A4801F041FC66
:10040C0001224FF48041274801F03BFC01224FF4BC
:10041C000041244801F035FC7B68082B29D10022CF
:10042C004FF400711F4801F02CFC00224FF4806146
:10043C001C4801F026FC00224FF40061194801F021
:10044C0020FC00224FF48051164801F01AFC0022C7
:10045C004FF40051134801F014FC00224FF480417A
:10046C00104801F00EFC00224FF400410D4801F041
:10047C0008FC7B68092B2CD100224FF40071094831
:10048C0001F0FFFB00224FF48061064801F0F9FBFC
:10049C0000224FF40061034801F0F3FB00224FF4FB
:1004AC00805101E0000801400C4801F0EAFB0122F8
:1004BC004FF40051094801F0E4FB00224FF4804155
:1004CC00064801F0DEFB00224FF40041034801F026
:1004DC00D8FB00BF0837BD4680BD00BF00080140F7
:1004EC0080B582B000AF78607B68002B24D10022ED
:1004FC000821C74801F0C5FB00221021C44801F0B7
:10050C00C0FB00222021C24801F0BBFB002240218D
:10051C00BF4801F0B6FB00228021BD4801F0B1FBC1
:10052C0000224FF48071BA4801F0ABFB01224FF46A
:10053C000071B74801F0A5FB7B68012B24D1012287
:10054C000821B34801F09DFB00221021B04801F0B6
:10055C0098FB00222021AE4801F093FB01224021A0
:10056C00AB4801F08EFB01228021A94801F089FBE8
:10057C0001224FF48071A64801F083FB01224FF455
:10058C000071A34801F07DFB7B68022B24D1002273
:10059C0008219F4801F075FB002210219C4801F0B6
:1005AC0070FB012220219A4801F06BFB00224021B4
:1005BC00974801F066FB00228021954801F061FB11
:1005CC0001224FF48071924801F05BFB00224FF442
:1005DC0000718F4801F055FB7B68032B24D100225E
:1005EC0008218B4801F04DFB00221021884801F0B6
:1005FC0048FB00222021864801F043FB00224021C9
:10060C00834801F03EFB01228021814801F039FB37
:10061C0001224FF480717E4801F033FB00224FF42D
:10062C0000717B4801F02DFB7B68042B24D1012247
:10063C000821774801F025FB00221021744801F0B5
:10064C0020FB00222021724801F01BFB01224021DB
:10065C006F4801F016FB012280216D4801F011FB5F
:10066C0000224FF480716A4801F00BFB00224FF41A
:10067C000071674801F005FB7B68052B24D1002233
:10068C000821634801F0FDFA01221021604801F0B5
:10069C00F8FA002220215E4801F0F3FA00224021F2
:1006AC005B4801F0EEFA01228021594801F0E9FA89
:1006BC0000224FF48071564801F0E3FA00224FF407
:1006CC000071534801F0DDFA7B68062B24D100221F
:1006DC0008214F4801F0D5FA012210214C4801F0B5
:1006EC00D0FA002220214A4801F0CBFA0022402106
:1006FC00474801F0C6FA00228021454801F0C1FAB2
:10070C0000224FF48071424801F0BBFA00224FF4F2
:10071C0000713F4801F0B5FA7B68072B24D1002209
:10072C0008213B4801F0ADFA00221021384801F0B5
:10073C00A8FA00222021364801F0A3FA0122402118
:10074C00334801F09EFA01228021314801F099FAD8
:10075C0001224FF480712E4801F093FA01224FF4DC
:10076C0000712B4801F08DFA7B68082B24D10022F4
:10077C000821274801F085FA00221021244801F0B5
:10078C0080FA00222021224801F07BFA002240212D
:10079C001F4801F076FA002280211D4801F071FA01
:1007AC0000224FF480711A4801F06BFA00224FF4CA
:1007BC000071174801F065FA7B68092B24D10022DF
:1007CC000821134801F05DFA00221021104801F0B5
:1007DC0058FA002220210E4801F053FA0022402141
:1007EC000B4801F04EFA01228021094801F049FA28
:1007FC0000224FF48071064801F043FA00224FF4B6
:10080C000071034801F03DFA00BF0837BD4680BDBA
:10081C00000C014080B582B000AF786039607B6815
:10082C00642B03D07B68652B17D032E000224FF489
:10083C0080411A4801F025FA01224FF40041174873
:10084C0001F01FFA3B68164A82FB03129210DB1769
:10085C00D31A1846FFF774FC1BE001224FF48041B9
:10086C000E4801F00EFA00224FF400410B4801F043
:10087C0008FA3A680A4B83FB02139910D317C91A6A
:10088C000B469B000B445B00D11A0846FFF758FC43
:10089C0000BF00BF0837BD4680BD00BF000C014043
:1008AC006766666680B582B000AF786039607B6839
:1008BC00C82B03D07B68C92B17D032E000224FF431
:1008CC0080511A4801F0DDF901224FF4005117480C
:1008DC0001F0D7F93B68164A82FB03129210DB1722
:1008EC00D31A1846FFF7FCFD1BE001224FF4805190
:1008FC000E4801F0C6F900224FF400510B4801F0EC
:10090C00C0F93A680A4B83FB02139910D317C91A22
:10091C000B469B000B445B00D11A0846FFF7E0FD29
:10092C0000BF00BF0837BD4680BD00BF000C0140B2
:10093C006766666680B500AF064B1B681946642077
:10094C00FFF768FF044B1B681946C820FFF7AAFF86
:10095C0000BF80BD980000209000002080B500AF43
:10096C00064B1B6819466520FFF754FF044B1B68A8
:10097C001946C920FFF796FF00BF80BD98000020E4
:10098C009000002080B483B000AF7860094A7B6887
:10099C0052F82330012B06D1064A7B68002142F81D
:1009AC002310012300E0002318460C37BD4680BC01
:1009BC00704700BF8400002080B483B000AF786023
:1009CC00044A7B68012142F8231000BF0C37BD4656
:1009DC0080BC70478400002080B582B000AF00233B
:1009EC007B6084E0464A7B6852F8232045497B684B
:1009FC0041F82320444A7B6852F8232040497B6805
:100A0C0041F823207B68002B0AD101213F4801F0DB
:100A1C0021F9034619463C4A7B6842F823101AE038
:100A2C007B68012B0AD10221384801F013F90346E7
:100A3C001946354A7B6842F823100CE07B68022B80
:100A4C0009D10421314801F005F9034619462E4A13
:100A5C007B6842F823102B4A7B6852F823202849E4
:100A6C007B6851F823309A423ED1254A7B6852F874
:100A7C00232025497B6851F823309A4234D1224AED
:100A8C007B6852F8232022497B6851F823309A4224
:100A9C0016D01D4A7B6852F823201D497B6841F80B
:100AAC002320194A7B6852F82330002B1CD1194A99
:100ABC007B68C82142F823107868FFF77DFF13E0AC
:100ACC00144A7B6852F823305A1E12497B6841F84D
:100ADC002320104A7B6852F82330002B04D10C4A97
:100AEC007B68012142F823107B6801337B607B68B3
:100AFC00022B7FF777AF00BF00BF0837BD4680BD24
:100B0C00180000200C00002000000020000C014008
:100B1C00240000207800002080B400AF0A4B022291
:100B2C001A600A4B03221A60094B05221A60084B03
:100B3C001B68084A1360054B1B68074A136000BF0B
:100B4C00BD4680BC704700BF94000020A000002070
:100B5C009C000020980000209000002080B500AF81
:100B6C0000F08EFD00F00EF800F094F800F046F85E
:100B7C00034801F0E3FCFFF7CFFF00F0FFF8FCE7C0
:100B8C00A400002080B590B000AF07F11803282214
:100B9C000021184602F082F83B1D00221A605A60B0
:100BAC009A60DA601A610223BB610123BB621023D5
:100BBC00FB6200237B6307F11803184601F092F8DF
:100BCC000346002B01D000F0D3F80F237B600023E9
:100BDC00BB600023FB6000233B6100237B613B1D5A
:100BEC000021184601F0FEFA0346002B01D000F05C
:100BFC00BFF800BF4037BD4680BD000080B586B051
:100C0C0000AF07F1080300221A605A609A60DA609C
:100C1C003B4600221A605A601D4B4FF080421A600E
:100C2C001B4B41F63F725A60194B00229A60184BCD
:100C3C000922DA60164B00221A61154B00229A61C8
:100C4C00134801F02BFC0346002B01D000F090F868
:100C5C004FF48053BB6007F1080319460C4801F0B0
:100C6C00A9FD0346002B01D000F082F800233B6065
:100C7C0000237B603B461946054801F081FF034683
:100C8C00002B01D000F074F800BF1837BD4680BDB2
:100C9C00A400002080B586B000AF07F10803002245
:100CAC001A605A609A60DA60284B9B69274A43F0B5
:100CBC0004039361254B9B6903F004037B607B6801
:100CCC00224B9B69214A43F0080393611F4B9B699C
:100CDC0003F008033B603B6800224FF67E611C4822
:100CEC0000F0CFFF00224FF2F8311A4800F0C9FF94
:100CFC004FF67E63BB600123FB6000233B61022344
:100D0C007B6107F108031946114800F029FE0723FF
:100D1C00BB600023FB6000233B6107F1080319460D
:100D2C000C4800F01DFE4FF2F833BB600123FB6052
:100D3C0000233B6102237B6107F108031946054838
:100D4C0000F00EFE00BF1837BD4680BD00100240FB
:100D5C0000080140000C014080B582B000AF786003
:100D6C0000F08AFAFFF738FE00BF0837BD4680BD99
:100D7C0080B400AF72B600BFFEE7000080B500AFD4
:100D8C00944B1B68042B00F2788101A252F823F0DB
:100D9C00B10D0008CB0D00084D0E0008030F000824
:100DAC00B70F00088C4B02221A60FFF7C3FD4FF4FB
:100DBC00FA7000F045FA874B01221A6066E100F0E8
:100DCC0073F9864B1B68012B1ED14FF4FA7000F09F
:100DDC0037FA814B1B68022B0FD1FFF7BFFD804BFD
:100DEC001B68013B7E4A13607E4B1B68013B7D4AAE
:100DFC001360794B00221A6001E0FFF79BFD764BE4
:100E0C001B680133744A13600020FFF7BBFD0346D7
:100E1C00012B40F034814FF4FA7000F011FA724B50
:100E2C001B68724A13606F4B02221A606E4B1B6870
:100E3C006B4A1360674B02221A6000F053FB1EE1F1
:100E4C00664B1B68012B16D14FF4FA7000F0F8F9C1
:100E5C0000F0E2FA604B1B68022B05D1FFF77EFD18
:100E6C005D4B00221A6001E0FFF764FD5A4B1B68D2
:100E7C000133594A13600020FFF784FD0346012B10
:100E8C0013D14FF4FA7000F0DBF9594B1B68574A39
:100E9C001360544B03221A60554B1B68504A136065
:100EAC004C4B03221A6000F01DFB0120FFF76AFD7A
:100EBC000346012B0FD14D4B1B68632B02DD4B4BB3
:100ECC0001221A60494B1B680133484A1360474B97
:100EDC001B68434A13600220FFF754FD0346012BA5
:100EEC0040F0CF80414B1B683F4A13603E4B1B6860
:100EFC003B4A1360C5E0394B1B68012B16D14FF4EC
:100F0C00FA7000F09DF900F0A9FA334B1B68022B24
:100F1C0005D1FFF723FD304B00221A6001E0FFF7EB
:100F2C0009FD2D4B1B6801332B4A13600020FFF782
:100F3C0029FD0346012B13D14FF4FA7000F080F910
:100F4C002C4B1B68294A1360264B04221A60294B30
:100F5C001B68234A13601F4B04221A6000F0C2FA6C
:100F6C000120FFF70FFD0346012B0FD11F4B1B6810
:100F7C00632B02DD1D4B01221A601C4B1B680133D5
:100F8C001A4A1360194B1B68154A13600220FFF7AD
:100F9C00F9FC0346012B76D1144B1B68144A1360E1
:100FAC00134B1B680E4A13606DE00C4B1B68012B36
:100FBC0029D14FF4FA7000F043F900F071FA064BA6
:100FCC001B68022B18D1FFF7C9FC034B00221A60D7
:100FDC0014E000BF5C000020F0000020680000203E
:100FEC0090000020980000209C000020EC000020C5
:100FFC0094000020A0000020FFF79CFC244B1B68F1
:10100C000133234A13600020FFF7BCFC0346012B7D
:10101C000ED1204B05221A601D4B02221A60FFF7DD
:10102C0089FC4FF4FA7000F00BF91B4B01221A608B
:10103C000120FFF7A7FC0346012B0FD1174B1B68B0
:10104C00632B02DD154B01221A60144B1B68013314
:10105C00124A1360114B1B68114A13600220FFF7F0
:10106C0091FC0346012B10D10C4B1B680D4A1360ED
:10107C000C4B1B680A4A136007E000BF06E000BF78
:10108C0004E000BF02E000BF00E000BF00BF80BD75
:10109C00F0000020300000205C000020EC0000205C
:1010AC0090000020A000002080B500AF4F4B1B68C3
:1010BC00013B042B00F28F8001A252F823F000BFF9
:1010CC00A911000813110008411100087B11000838
:1010DC00E1100008464B1B684FF47A7202FB03F3D5
:1010EC00184600F091F8434B1B68434A1360404B81
:1010FC001B68424A136000F019FA00F085FA3B4B6A
:10110C0002221A6070E03E4B1B68012B65D13D4BEF
:10111C001B684FF47A7202FB03F3184600F074F864
:10112C0000F05CFA374B1B68344A13602F4B0322D8
:10113C001A6052E0324B1B68012B50D12C4B1B68B0
:10114C004FF47A7202FB03F3184600F05DF800F0DE
:10115C0019FA00F02DFA264B1B68274A1360254B11
:10116C001B68264A1360214B04221A6037E0244B7B
:10117C001B68012B35D1234B1B684FF47A7202FB91
:10118C0003F3184600F040F800F0E6F91D4B1B681D
:10119C00194A1360154B01221A6022E0184B1B6888
:1011AC00012B20D1124B1B684FF47A7202FB03F314
:1011BC00184600F029F800F0B9F900F025FA0D4BAB
:1011CC001B680D4A13600A4B1B680C4A1360074BD3
:1011DC0002221A6007E000BF06E000BF04E000BF77
:1011EC0002E000BF00E000BF00BF80BD3000002067
:1011FC00A00000209C0000209800002090000020FF
:10120C00600000209400002080B483B000AF7860B0
:10121C007B68084A82FB03129210DB17D31A064A2A
:10122C001360064B00221A6000BF0C37BD4680BC11
:10123C00704700BF6766666664000020600000208F
:10124C0080B483B000AF78607B68084A82FB0312DD
:10125C009210DB17D31A064A1360064B00221A6051
:10126C0000BF0C37BD4680BC704700BF6766666622
:10127C006C0000206800002080B400AF194B1B6884
:10128C00002B0BDD174B1B68013B164A1360154BEB
:10129C001B68002B02DC144B01221A60134B1B68D9
:1012AC00002B0BDD114B1B68013B104A13600F4BDD
:1012BC001B68002B02DC0E4B01221A600D4B1B68C5
:1012CC00002B0BDD0B4B1B68013B0A4A1360094BCF
:1012DC001B68002B02DC084B01221A6000BFBD46C4
:1012EC0080BC704764000020600000206C0000206F
:1012FC0068000020740000207000002080B485B0CD
:10130C0000AF154B9B69144A43F001039361124BD8
:10131C009B6903F00103BB60BB680F4BDB690E4A92
:10132C0043F08053D3610C4BDB6903F080537B603B
:10133C007B680A4B5B68FB60FB6823F0E063FB6037
:10134C00FB6843F08063FB60044AFB68536000BF9A
:10135C001437BD4680BC70470010024000000140AD
:10136C0080B584B000AF78607B681B68B3F1804FA8
:10137C0013D10C4BDB690B4A43F00103D361094BCE
:10138C00DB6903F00103FB60FB68002200211C20D9
:10139C0000F0AFFA1C2000F0C8FA00BF1037BD46B1
:1013AC0080BD00BF0010024080B400AFFEE780B4E7
:1013BC0000AFFEE780B400AFFEE780B400AFFEE7FD
:1013CC0080B400AFFEE780B400AF00BFBD4680BC68
:1013DC00704780B400AF00BFBD4680BC704780B47E
:1013EC0000AF00BFBD4680BC704780B500AF00F0B9
:1013FC008DF900BF80BD000080B500AF024801F040
:10140C00E9F800BF80BD00BFA400002080B400AF8D
:10141C0000BFBD4680BC704780B500AF02210E48AE
:10142C0000F047FC012204210B4800F02AFC0122A9
:10143C000821094800F025FC1021074800F039FC70
:10144C0001222021044800F01CFC0122402102480A
:10145C0000F017FC00BF80BD0008014080B500AF54
:10146C0004210E4800F025FC012202210B4800F05B
:10147C0008FC01220821094800F003FC2021074840
:10148C0000F017FC01221021044800F0FAFB0122A5
:10149C004021024800F0F5FB00BF80BD0008014070
:1014AC0080B500AF08210E4800F003FC0122042196
:1014BC000B4800F0E6FB01220221094800F0E1FB99
:1014CC004021074800F0F5FB01222021044800F0E0
:1014DC00D8FB01221021024800F0D3FB00BF80BDD5
:1014EC000008014080B500AF012202210E4800F037
:1014FC00C8FB012204210C4800F0C3FB0122082187
:10150C00094800F0BEFB01221021074800F0B9FB8E
:10151C0001222021044800F0B4FB012240210248A2
:10152C0000F0AFFB00BF80BD0008014080B500AFEC
:10153C0000220221074800F0A4FB012204210548E7
:10154C0000F09FFB01220821024800F09AFB00BF2B
:10155C0080BD00BF0008014080B500AF0122022110
:10156C00074800F08EFB00220421054800F089FB9F
:10157C0001220821024800F084FB00BF80BD00BF9F
:10158C000008014080B500AF01220221074800F09D
:10159C0078FB01220421054800F073FB002208218E
:1015AC00024800F06EFB00BF80BD00BF0008014088
:1015BC0080B500AF00221021074800F062FB012229
:1015CC002021054800F05DFB01224021024800F07B
:1015DC0058FB00BF80BD00BF0008014080B500AFC4
:1015EC0001221021074800F04CFB00222021054865
:1015FC0000F047FB01224021024800F042FB00BFF3
:10160C0080BD00BF0008014080B500AF0122102151
:10161C00074800F036FB01222021054800F031FB81
:10162C0000224021024800F02CFB00BF80BD00BF0F
:10163C0000080140FFF7EAFE0B480C490C4A002356
:10164C0002E0D458C4500433C4188C42F9D3094A6C
:10165C00094C002301E013600432A242FBD301F0D9
:10166C00F9FAFFF77BFA70470000002040000020D9
:10167C00FC2C000840000020F8000020FEE70000D1
:10168C0080B500AF084B1B68074A43F0100313608A
:10169C00032000F023F90F2000F008F8FFF72EFECE
:1016AC000023184680BD00BF0020024080B582B0E8
:1016BC0000AF7860124B1A68124B1B7819464FF426
:1016CC007A73B3FBF1F3B2FBF3F3184600F03BF97A
:1016DC000346002B01D001230EE07B680F2B0AD8A8
:1016EC00002279684FF0FF3000F003F9064A7B685E
:1016FC001360002300E0012318460837BD4680BD67
:10170C00340000203C0000203800002080B400AFE2
:10171C00054B1B781A46054B1B681344034A136090
:10172C0000BFBD4680BC70473C000020F400002088
:10173C0080B400AF024B1B681846BD4680BC704796
:10174C00F400002080B485B000AF78607B6803F0B3
:10175C000703FB600C4BDB68BB60BA684FF6FF03FA
:10176C001340BB60FB681A02BB68134343F0BF63B2
:10177C0043F40033BB60044ABB68D36000BF14372A
:10178C00BD4680BC704700BF00ED00E080B400AFE8
:10179C00044BDB681B0A03F007031846BD4680BCEC
:1017AC00704700BF00ED00E080B483B000AF03468B
:1017BC00FB7197F90730002B0BDBFB7903F01F0251
:1017CC00064997F907305B09012000FA02F241F84B
:1017DC00232000BF0C37BD4680BC704700E100E001
:1017EC0080B483B000AF03463960FB7197F90730C2
:1017FC00002B0ADB3B68DAB20C4997F9073012016F
:10180C00D2B20B4483F800230AE03B68DAB20849F1
:10181C00FB7903F00F03043B1201D2B20B441A768E
:10182C0000BF0C37BD4680BC704700BF00E100E034
:10183C0000ED00E080B489B000AFF860B9607A6068
:10184C00FB6803F00703FB61FB69C3F10703042B7F
:10185C0028BF0423BB61FB690433062B02D9FB6947
:10186C00033B00E000237B614FF0FF32BB6902FABF
:10187C0003F3DA43BB681A407B699A404FF0FF319F
:10188C007B6901FA03F3D9437B680B401343184679
:10189C002437BD4680BC704780B582B000AF7860FD
:1018AC007B68013BB3F1807F01D301230FE00A4A2F
:1018BC007B68013B53600F214FF0FF30FFF790FF27
:1018CC00054B00229A60044B07221A60002318462D
:1018DC000837BD4680BD00BF10E000E080B582B087
:1018EC0000AF78607868FFF72DFF00BF0837BD4662
:1018FC0080BD80B586B000AF0346B9607A60FB73DB
:10190C0000237B61FFF742FF78617A68B9687869D8
:10191C00FFF790FF024697F90F3011461846FFF774
:10192C005FFF00BF1837BD4680BD80B582B000AFE9
:10193C000346FB7197F907301846FFF735FF00BFD8
:10194C000837BD4680BD80B582B000AF786078683E
:10195C00FFF7A2FF034618460837BD4680BD0000BE
:10196C0080B48BB000AF7860396000237B620023B9
:10197C003B6248E101227B6A02FA03F3FB613B689C
:10198C001B68FA691340BB61BA69FB699A4240F063
:10199C0037813B685B68A34A93425ED0A14A93426D
:1019AC0075D8A14A934258D09F4A93426FD89F4A08
:1019BC00934252D09D4A934269D89D4A93424CD04F
:1019CC009B4A934263D89B4A934246D0994A93428E
:1019DC005DD8122B2AD8122B59D801A252F823F019
:1019EC00671A0008411A0008531A0008951A0008D3
:1019FC009B1A00089B1A00089B1A00089B1A0008E7
:101A0C009B1A00089B1A00089B1A00089B1A0008D6
:101A1C009B1A00089B1A00089B1A00089B1A0008C6
:101A2C009B1A0008491A00085D1A0008824A934262
:101A3C0013D02CE03B68DB683B6229E03B68DB6839
:101A4C0004333B6224E03B68DB6808333B621FE0F5
:101A5C003B68DB680C333B621AE03B689B68002BED
:101A6C0002D104233B6213E03B689B68012B05D138
:101A7C0008233B627B68FA691A6109E008233B6220
:101A8C007B68FA695A6103E000233B6200E000BF07
:101A9C00BB69FF2B01D87B6801E07B6804337B6159
:101AAC00BB69FF2B02D87B6A9B0002E07B6A083B78
:101ABC009B003B617B691A680F213B6901FA03F3B8
:101ACC00DB431A40396A3B6901FA03F31A437B6919
:101ADC001A603B685B6803F08053002B00F0908029
:101AEC00564B9B69554A43F001039361534B9B69D9
:101AFC0003F00103BB60BB68514A7B6A9B0802334D
:101B0C0052F82330FB607B6A03F003039B000F2227
:101B1C0002FA03F3DB43FA681340FB607B68494A23
:101B2C0093420DD07B68484A934207D07B68474A62
:101B3C00934201D1022304E0032302E0012300E0DD
:101B4C0000237A6A02F0030292009340FA6813436E
:101B5C00FB603B497B6A9B080233FA6841F82320FF
:101B6C003B685B6803F48013002B06D0384B9A68F3
:101B7C003749BB6913438B6006E0354B9A68BB69E8
:101B8C00DB43334913408B603B685B6803F4001301
:101B9C00002B06D02E4BDA682D49BB691343CB6062
:101BAC0006E02B4BDA68BB69DB4329491340CB6059
:101BBC003B685B6803F40033002B06D0244B5A6857
:101BCC002349BB6913434B6006E0214B5A68BB6940
:101BDC00DB431F4913404B603B685B6803F4803365
:101BEC00002B06D01A4B1A681949BB6913430B60BA
:101BFC0006E0174B1A68BB69DB43154913400B60B1
:101C0C007B6A01337B623B681A687B6A22FA03F3B6
:101C1C00002B7FF4AFAE00BF00BF2C37BD4680BC9D
:101C2C00704700BF0000321000003110000022107D
:101C3C0000002110000012100000111000100240D2
:101C4C000000014000080140000C01400010014060
:101C5C000004014080B485B000AF78600B467B80F7
:101C6C007B689A687B881340002B02D00123FB739E
:101C7C0001E00023FB73FB7B18461437BD4680BC88
:101C8C00704780B483B000AF78600B467B801346FE
:101C9C007B707B78002B03D07A887B681A6103E019
:101CAC007B881A047B681A6100BF0C37BD4680BC68
:101CBC00704780B485B000AF78600B467B807B6842
:101CCC00DB68FB607A88FB6813401A04FB68D94315
:101CDC007B880B401A437B681A6100BF1437BD46E2
:101CEC0080BC704780B586B000AF78607B68002BF5
:101CFC0001D101236CE27B681B6803F00103002B0C
:101D0C0000F08780924B5B6803F00C03042B0CD023
:101D1C008F4B5B6803F00C03082B12D18C4B5B6868
:101D2C0003F48033B3F5803F0BD1894B1B6803F46C
:101D3C000033002B6CD07B685B68002B68D10123CF
:101D4C0046E27B685B68B3F5803F06D1804B1B682D
:101D5C007F4A43F4803313602EE07B685B68002B72
:101D6C000CD17B4B1B687A4A23F480331360784B7D
:101D7C001B68774A23F4802313601DE07B685B6843
:101D8C00B3F5A02F0CD1724B1B68714A43F480231E
:101D9C0013606F4B1B686E4A43F4803313600BE087
:101DAC006B4B1B686A4A23F480331360684B1B68C7
:101DBC00674A23F4802313607B685B68002B13D085
:101DCC00FFF7B6FC386108E0FFF7B2FC02463B694E
:101DDC00D31A642B01D90323FAE15D4B1B6803F47E
:101DEC000033002BF0D014E0FFF7A2FC386108E0C0
:101DFC00FFF79EFC02463B69D31A642B01D90323DF
:101E0C00E6E1534B1B6803F40033002BF0D100E0E8
:101E1C0000BF7B681B6803F00203002B63D04C4BA4
:101E2C005B6803F00C03002B0BD0494B5B6803F091
:101E3C000C03082B1CD1464B5B6803F48033002B3E
:101E4C0016D1434B1B6803F00203002B05D07B68B3
:101E5C001B69012B01D00123BAE13D4B1B6823F018
:101E6C00F8027B685B69DB00394913430B603AE08D
:101E7C007B681B69002B20D0364B01221A60FFF7C0
:101E8C0057FC386108E0FFF753FC02463B69D31A54
:101E9C00022B01D903239BE12D4B1B6803F002039A
:101EAC00002BF0D02A4B1B6823F0F8027B685B698F
:101EBC00DB00274913430B6015E0264B00221A6008
:101ECC00FFF736FC386108E0FFF732FC02463B694D
:101EDC00D31A022B01D903237AE11D4B1B6803F0A3
:101EEC000203002BF0D17B681B6803F00803002B66
:101EFC003AD07B689B69002B19D0174B01221A60D2
:101F0C00FFF716FC386108E0FFF712FC02463B694C
:101F1C00D31A022B01D903235AE10D4B5B6A03F050
:101F2C000203002BF0D0012000F09AFA1CE00A4BBF
:101F3C0000221A60FFF7FCFB38610FE0FFF7F8FB9B
:101F4C0002463B69D31A022B08D9032340E100BF98
:101F5C000010024000004242800442429E4B5B6AE9
:101F6C0003F00203002BE9D17B681B6803F0040328
:101F7C00002B00F0A6800023FB75974BDB6903F068
:101F8C008053002B0DD1944BDB69934A43F0805363
:101F9C00D361914BDB6903F08053BB60BB680123B9
:101FAC00FB758E4B1B6803F48073002B18D18B4B85
:101FBC001B688A4A43F480731360FFF7B9FB3861DE
:101FCC0008E0FFF7B5FB02463B69D31A642B01D935
:101FDC000323FDE0814B1B6803F48073002BF0D0CE
:101FEC007B68DB68012B06D17B4B1B6A7A4A43F07A
:101FFC00010313622DE07B68DB68002B0CD1764B60
:10200C001B6A754A23F001031362734B1B6A724AF5
:10201C0023F0040313621CE07B68DB68052B0CD1F6
:10202C006D4B1B6A6C4A43F0040313626A4B1B6AC8
:10203C00694A43F0010313620BE0674B1B6A664A63
:10204C0023F001031362644B1B6A634A23F00403FD
:10205C0013627B68DB68002B15D0FFF769FB3861D6
:10206C000AE0FFF765FB02463B69D31A41F288325E
:10207C00934201D90323ABE0574B1B6A03F00203D5
:10208C00002BEED014E0FFF753FB38610AE0FFF7AA
:10209C004FFB02463B69D31A41F28832934201D975
:1020AC00032395E04C4B1B6A03F00203002BEED18B
:1020BC00FB7D012B05D1484BDB69474A23F080534C
:1020CC00D3617B68DB69002B00F08180424B5B683D
:1020DC0003F00C03082B61D07B68DB69022B46D123
:1020EC003F4B00221A60FFF723FB386108E0FFF733
:1020FC001FFB02463B69D31A022B01D9032367E06D
:10210C00354B1B6803F00073002BF0D17B681B6A06
:10211C00B3F5803F08D1304B5B6823F400327B6809
:10212C009B682D4913434B602B4B5B6823F4741253
:10213C007B68196A7B685B6A0B43274913434B60C6
:10214C00274B01221A60FFF7F3FA386108E0FFF71A
:10215C00EFFA02463B69D31A022B01D9032337E06D
:10216C001D4B1B6803F00073002BF0D02FE01C4BB1
:10217C0000221A60FFF7DCFA386108E0FFF7D8FAA2
:10218C0002463B69D31A022B01D9032320E0124BE0
:10219C001B6803F00073002BF0D118E07B68DB693F
:1021AC00012B01D1012313E00B4B5B68FB60FB6837
:1021BC0003F480327B681B6A9A4206D1FB6803F4F5
:1021CC0070127B685B6A9A4201D0012300E0002305
:1021DC0018461837BD4680BD001002400070004004
:1021EC006000424280B584B000AF786039607B6893
:1021FC00002B01D10123D0E06A4B1B6803F00703CD
:10220C003A689A4210D9674B1B6823F0070265495C
:10221C003B6813430B60634B1B6803F007033A687E
:10222C009A4201D00123B8E07B681B6803F00203DB
:10223C00002B20D07B681B6803F00403002B05D017
:10224C00594B5B68584A43F4E06353607B681B68E6
:10225C0003F00803002B05D0534B5B68524A43F440
:10226C0060535360504B5B6823F0F0027B689B68B3
:10227C004D4913434B607B681B6803F00103002B33
:10228C0040D07B685B68012B07D1474B1B6803F47C
:10229C000033002B15D101237FE07B685B68022B98
:1022AC0007D1414B1B6803F00073002B09D10123AC
:1022BC0073E03D4B1B6803F00203002B01D101239B
:1022CC006BE0394B5B6823F003027B685B68364933
:1022DC0013434B60FFF72CFAF8600AE0FFF728FA7B
:1022EC000246FB68D31A41F28832934201D9032388
:1022FC0053E02D4B5B6803F00C027B685B689B0022
:10230C009A42EBD1274B1B6803F007033A689A42B9
:10231C0010D2244B1B6823F0070222493B6813435D
:10232C000B60204B1B6803F007033A689A4201D0FC
:10233C00012332E07B681B6803F00403002B08D0F8
:10234C00194B5B6823F4E0627B68DB681649134326
:10235C004B607B681B6803F00803002B09D0124B01
:10236C005B6823F460527B681B69DB000E491343E6
:10237C004B6000F021F802460B4B5B681B0903F025
:10238C000F030A49CB5C22FA03F3094A1360094B89
:10239C001B681846FFF78AF9002318461037BD460C
:1023AC0080BD00BF0020024000100240D02C00086D
:1023BC00340000203800002080B487B000AF002328
:1023CC00FB600023BB6000237B6100237B60002348
:1023DC003B611E4B5B68FB60FB6803F00C03042B3A
:1023EC0002D0082B03D027E0194B3B6127E0FB6898
:1023FC009B0C03F00F03174AD35C7B60FB6803F460
:10240C008033002B10D0114B5B685B0C03F0010385
:10241C00114AD35CBB607B680D4A02FB03F2BB68BC
:10242C00B2FBF3F37B6104E07B680C4A02FB03F321
:10243C007B617B693B6102E0054B3B6100BF3B6903
:10244C0018461C37BD4680BC704700BF00100240C8
:10245C0000127A00E02C0008F02C000800093D0066
:10246C0080B485B000AF78600A4B1B680A4AA2FBA7
:10247C0003235B0A7A6802FB03F3FB6000BFFB6873
:10248C005A1EFA60002BF9D100BF00BF1437BD46AD
:10249C0080BC704734000020D34D621080B582B0F0
:1024AC0000AF78607B68002B01D1012341E07B6891
:1024BC0093F83D30DBB2002B06D17B68002283F809
:1024CC003C207868FEF74CFF7B68022283F83D20A5
:1024DC007B681A687B6804331946104600F056FA7C
:1024EC007B68012283F846207B68012283F83E201A
:1024FC007B68012283F83F207B68012283F840200F
:10250C007B68012283F841207B68012283F84220FA
:10251C007B68012283F843207B68012283F84420E6
:10252C007B68012283F845207B68012283F83D20DB
:10253C00002318460837BD4680BD000080B485B026
:10254C0000AF78607B6893F83D30DBB2012B01D093
:10255C00012335E07B68022283F83D207B681B68F1
:10256C00DA687B681B6842F00102DA607B681B68E2
:10257C00164A934209D07B681B68B3F1804F04D094
:10258C007B681B68124A934211D17B681B689B685D
:10259C0003F00703FB60FB68062B10D07B681B68FD
:1025AC001A687B681B6842F001021A6007E07B68BE
:1025BC001B681A687B681B6842F001021A600023D2
:1025CC0018461437BD4680BC704700BF002C014034
:1025DC000004004080B584B000AF78607B681B6855
:1025EC00DB68FB607B681B681B69BB60BB6803F026
:1025FC000203002B20D0FB6803F00203002B1BD03E
:10260C007B681B686FF002021A617B6801221A77E3
:10261C007B681B689B6903F00303002B03D078686D
:10262C0000F098F905E0786800F08BF9786800F014
:10263C009AF97B6800221A77BB6803F00403002B1D
:10264C0020D0FB6803F00403002B1BD07B681B68B5
:10265C006FF004021A617B6802221A777B681B6890
:10266C009B6903F44073002B03D0786800F072F977
:10267C0005E0786800F065F9786800F074F97B681B
:10268C0000221A77BB6803F00803002B20D0FB68EC
:10269C0003F00803002B1BD07B681B686FF008024B
:1026AC001A617B6804221A777B681B68DB6903F06C
:1026BC000303002B03D0786800F04CF905E0786830
:1026CC0000F03FF9786800F04EF97B6800221A7729
:1026DC00BB6803F01003002B20D0FB6803F0100341
:1026EC00002B1BD07B681B686FF010021A617B6893
:1026FC0008221A777B681B68DB6903F44073002B94
:10270C0003D0786800F026F905E0786800F019F934
:10271C00786800F028F97B6800221A77BB6803F010
:10272C000103002B0CD0FB6803F00103002B07D036
:10273C007B681B686FF001021A617868FEF70CFB6E
:10274C00BB6803F08003002B0CD0FB6803F0800304
:10275C00002B07D07B681B686FF080021A617868C9
:10276C0000F06FFABB6803F04003002B0CD0FB6841
:10277C0003F04003002B07D07B681B686FF040020E
:10278C001A61786800F0F8F8BB6803F02003002B9E
:10279C000CD0FB6803F02003002B07D07B681B6870
:1027AC006FF020021A61786800F042FA00BF10370F
:1027BC00BD4680BD80B584B000AF78603960002321
:1027CC00FB737B6893F83C30012B01D10223B4E0FE
:1027DC007B68012283F83C207B68022283F83D2031
:1027EC007B681B689B68BB60BB6823F07703BB608E
:1027FC00BB6823F47F43BB607B681B68BA689A6034
:10280C003B681B68B3F5005F3ED0B3F5005F00F288
:10281C008780B3F5805F00F08680B3F5805F7FD84A
:10282C00702B1AD0702B7BD8602B50D0602B77D8A4
:10283C00502B3CD0502B73D8402B58D0402B6FD8FA
:10284C00302B64D0302B6BD8202B60D0202B67D84A
:10285C00002B5CD0102B5AD062E07B6818683B6868
:10286C0099683B685A683B68DB6800F06AF97B68DA
:10287C001B689B68BB60BB6843F07703BB607B68DD
:10288C001B68BA689A604FE07B6818683B68996867
:10289C003B685A683B68DB6800F053F97B681B683F
:1028AC009A687B681B6842F480429A603CE07B68C3
:1028BC0018683B6859683B68DB681A4600F0CAF830
:1028CC007B681B685021184600F021F92CE07B68CE
:1028DC0018683B6859683B68DB681A4600F0E8F8F2
:1028EC007B681B686021184600F011F91CE07B68BE
:1028FC0018683B6859683B68DB681A4600F0AAF810
:10290C007B681B684021184600F001F90CE07B68DD
:10291C001A683B681B681946104600F0F8F803E08B
:10292C000123FB7300E000BF7B68012283F83D208C
:10293C007B68002283F83C20FB7B18461037BD4691
:10294C0080BD80B483B000AF786000BF0C37BD464B
:10295C0080BC704780B483B000AF786000BF0C3788
:10296C00BD4680BC704780B483B000AF786000BFB8
:10297C000C37BD4680BC704780B483B000AF786024
:10298C0000BF0C37BD4680BC7047000080B485B0DA
:10299C0000AF786039607B681B68FB607B682B4AF2
:1029AC00934207D07B68B3F1804F03D07B68284AF1
:1029BC00934208D1FB6823F07003FB603B685B68B3
:1029CC00FA681343FB607B68204A934207D07B680C
:1029DC00B3F1804F03D07B681D4A934208D1FB684A
:1029EC0023F44073FB603B68DB68FA681343FB60BD
:1029FC00FB6823F080023B685B691343FB607B68D8
:102A0C00FA681A603B689A687B68DA623B681A68F5
:102A1C007B689A627B680D4A934203D13B681A69C2
:102A2C007B681A637B6801225A617B681B6903F01F
:102A3C000103002B05D07B681B6923F001027B6826
:102A4C001A6100BF1437BD4680BC7047002C014092
:102A5C000004004080B487B000AFF860B9607A60C1
:102A6C00FB681B6A7B61FB681B6A23F00102FB6835
:102A7C001A62FB689B693B613B6923F0F0033B6185
:102A8C007B681B013A6913433B617B6923F00A03A2
:102A9C007B617A69BB6813437B61FB683A699A6115
:102AAC00FB687A691A6200BF1C37BD4680BC704750
:102ABC0080B487B000AFF860B9607A60FB681B6ABD
:102ACC007B61FB681B6A23F01002FB681A62FB68CF
:102ADC009B693B613B6923F470433B617B681B033F
:102AEC003A6913433B617B6923F0A0037B61BB68AC
:102AFC001B017A6913437B61FB683A699A61FB6835
:102B0C007A691A6200BF1C37BD4680BC704780B41E
:102B1C0085B000AF786039607B689B68FB60FB68B0
:102B2C0023F07003FB603A68FB68134343F0070320
:102B3C00FB607B68FA689A6000BF1437BD4680BCA6
:102B4C00704780B487B000AFF860B9607A603B60C2
:102B5C00FB689B687B617B6923F47F437B613B68EB
:102B6C001A027B681A43BB6813437A6913437B616F
:102B7C00FB687A699A6000BF1C37BD4680BC704701
:102B8C0080B485B000AF786039607B6893F83C30D6
:102B9C00012B01D1022341E07B68012283F83C2008
:102BAC007B68022283F83D207B681B685B68FB60B6
:102BBC007B681B689B68BB60FB6823F07003FB6041
:102BCC003B681B68FA681343FB607B681B68FA68F8
:102BDC005A607B681B68144A934209D07B681B6857
:102BEC00B3F1804F04D07B681B68104A93420CD120
:102BFC00BB6823F08003BB603B685B68BA68134317
:102C0C00BB607B681B68BA689A607B68012283F89A
:102C1C003D207B68002283F83C20002318461437A3
:102C2C00BD4680BC704700BF002C01400004004032
:102C3C0080B483B000AF786000BF0C37BD4680BC59
:102C4C00704780B483B000AF786000BF0C37BD46CE
:102C5C0080BC704770B500260C4D0D4C641BA41045
:102C6C00A64209D100F022F800260A4D0A4C641B3A
:102C7C00A410A64205D170BD55F8043B9847013607
:102C8C00EEE755F8043B98470136F2E7F42C0008C0
:102C9C00F42C0008F42C0008F82C0008034602441D
:102CAC00934200D1704703F8011BF9E7F8B500BF58
:102CBC00F8BC08BC9E467047F8B500BFF8BC08BC11
:042CCC009E46704769
:102CD00000000000000000000102030406070809CC
:102CE00002030405060708090A0B0C0D0E0F10104D
:042CF00001020000DD
:042CF40031010008A2
:042CF8000D010008C2
:102CFC0001000000000000000000000001000000C6
:102D0C0000000000000000000100000000000000B6
:102D1C0000000000010000000000000000000000A6
:102D2C000500000000127A001000000001000000F5
:040000050800164198
:00000001FF
